{
  "contractName": "DepositorContract",
  "abi": [
    {
      "inputs": [
        {
          "internalType": "address",
          "name": "_contractGldAddr",
          "type": "address"
        }
      ],
      "stateMutability": "nonpayable",
      "type": "constructor"
    },
    {
      "inputs": [],
      "name": "addrUniswap",
      "outputs": [
        {
          "internalType": "address",
          "name": "",
          "type": "address"
        }
      ],
      "stateMutability": "view",
      "type": "function"
    },
    {
      "inputs": [
        {
          "internalType": "address",
          "name": "",
          "type": "address"
        }
      ],
      "name": "tokensInContract",
      "outputs": [
        {
          "internalType": "uint256",
          "name": "",
          "type": "uint256"
        }
      ],
      "stateMutability": "view",
      "type": "function"
    },
    {
      "inputs": [
        {
          "internalType": "address",
          "name": "",
          "type": "address"
        }
      ],
      "name": "tokensInPool",
      "outputs": [
        {
          "internalType": "uint256",
          "name": "",
          "type": "uint256"
        }
      ],
      "stateMutability": "view",
      "type": "function"
    },
    {
      "inputs": [],
      "name": "totalTokensInUniswapPool",
      "outputs": [
        {
          "internalType": "uint256",
          "name": "",
          "type": "uint256"
        }
      ],
      "stateMutability": "view",
      "type": "function"
    },
    {
      "inputs": [],
      "name": "totalTokensManagedByDepositor",
      "outputs": [
        {
          "internalType": "uint256",
          "name": "",
          "type": "uint256"
        }
      ],
      "stateMutability": "view",
      "type": "function"
    },
    {
      "inputs": [],
      "name": "claimGldTokens",
      "outputs": [],
      "stateMutability": "nonpayable",
      "type": "function"
    },
    {
      "inputs": [
        {
          "internalType": "uint256",
          "name": "amount",
          "type": "uint256"
        }
      ],
      "name": "withdrawGldTokens",
      "outputs": [],
      "stateMutability": "nonpayable",
      "type": "function"
    },
    {
      "inputs": [
        {
          "internalType": "uint256",
          "name": "amount",
          "type": "uint256"
        }
      ],
      "name": "depositGldTokens",
      "outputs": [],
      "stateMutability": "nonpayable",
      "type": "function"
    },
    {
      "inputs": [
        {
          "internalType": "uint256",
          "name": "amountTokenDesired",
          "type": "uint256"
        },
        {
          "internalType": "uint256",
          "name": "amountTokenMin",
          "type": "uint256"
        },
        {
          "internalType": "uint256",
          "name": "amountEthMin",
          "type": "uint256"
        },
        {
          "internalType": "address",
          "name": "to",
          "type": "address"
        },
        {
          "internalType": "uint256",
          "name": "deadline",
          "type": "uint256"
        }
      ],
      "name": "depositToUniswapPool",
      "outputs": [],
      "stateMutability": "payable",
      "type": "function"
    },
    {
      "inputs": [
        {
          "internalType": "uint256",
          "name": "liquidity",
          "type": "uint256"
        },
        {
          "internalType": "uint256",
          "name": "amountTokenMin",
          "type": "uint256"
        },
        {
          "internalType": "uint256",
          "name": "amountEthMin",
          "type": "uint256"
        },
        {
          "internalType": "address",
          "name": "to",
          "type": "address"
        },
        {
          "internalType": "uint256",
          "name": "deadline",
          "type": "uint256"
        }
      ],
      "name": "withdrawFromUniswapPool",
      "outputs": [],
      "stateMutability": "nonpayable",
      "type": "function"
    }
  ],
  "bytecode": "0x608060405260006002556000600355737a250d5630b4cf539739df2c5dacb4c659f2488d600560006101000a81548173ffffffffffffffffffffffffffffffffffffffff021916908373ffffffffffffffffffffffffffffffffffffffff16021790555034801561006f57600080fd5b506040516113a73803806113a78339818101604052602081101561009257600080fd5b8101908080519060200190929190505050806000806101000a81548173ffffffffffffffffffffffffffffffffffffffff021916908373ffffffffffffffffffffffffffffffffffffffff16021790555080600460006101000a81548173ffffffffffffffffffffffffffffffffffffffff021916908373ffffffffffffffffffffffffffffffffffffffff1602179055506000809054906101000a900473ffffffffffffffffffffffffffffffffffffffff1673ffffffffffffffffffffffffffffffffffffffff1663095ea7b3600560009054906101000a900473ffffffffffffffffffffffffffffffffffffffff167fffffffffffffffffffffffffffffffffffffffffffffffffffffffffffffffff6040518363ffffffff1660e01b8152600401808373ffffffffffffffffffffffffffffffffffffffff1673ffffffffffffffffffffffffffffffffffffffff16815260200182815260200192505050600060405180830381600087803b15801561020e57600080fd5b505af1158015610222573d6000803e3d6000fd5b5050505050611171806102366000396000f3fe6080604052600436106100915760003560e01c806377cf56191161005957806377cf5619146101cf578063a6f110831461020a578063d11b307014610276578063d5e381eb146102ef578063e95799651461031a57610091565b80630147b0811461009657806312e9332d146100c157806319ceb30c146101185780632cdc299a1461012f57806332d6599d1461016a575b600080fd5b3480156100a257600080fd5b506100ab61037f565b6040518082815260200191505060405180910390f35b3480156100cd57600080fd5b506100d6610385565b604051808273ffffffffffffffffffffffffffffffffffffffff1673ffffffffffffffffffffffffffffffffffffffff16815260200191505060405180910390f35b34801561012457600080fd5b5061012d6103ab565b005b34801561013b57600080fd5b506101686004803603602081101561015257600080fd5b81019080803590602001909291905050506104ff565b005b34801561017657600080fd5b506101b96004803603602081101561018d57600080fd5b81019080803573ffffffffffffffffffffffffffffffffffffffff1690602001909291905050506107eb565b6040518082815260200191505060405180910390f35b3480156101db57600080fd5b50610208600480360360208110156101f257600080fd5b8101908080359060200190929190505050610803565b005b610274600480360360a081101561022057600080fd5b81019080803590602001909291908035906020019092919080359060200190929190803573ffffffffffffffffffffffffffffffffffffffff16906020019092919080359060200190929190505050610aef565b005b34801561028257600080fd5b506102ed600480360360a081101561029957600080fd5b81019080803590602001909291908035906020019092919080359060200190929190803573ffffffffffffffffffffffffffffffffffffffff16906020019092919080359060200190929190505050610e5e565b005b3480156102fb57600080fd5b506103046110cf565b6040518082815260200191505060405180910390f35b34801561032657600080fd5b506103696004803603602081101561033d57600080fd5b81019080803573ffffffffffffffffffffffffffffffffffffffff1690602001909291905050506110d5565b6040518082815260200191505060405180910390f35b60035481565b600560009054906101000a900473ffffffffffffffffffffffffffffffffffffffff1681565b600460009054906101000a900473ffffffffffffffffffffffffffffffffffffffff166000806101000a81548173ffffffffffffffffffffffffffffffffffffffff021916908373ffffffffffffffffffffffffffffffffffffffff1602179055506000809054906101000a900473ffffffffffffffffffffffffffffffffffffffff1673ffffffffffffffffffffffffffffffffffffffff166348c54b9d6040518163ffffffff1660e01b8152600401600060405180830381600087803b15801561047657600080fd5b505af115801561048a573d6000803e3d6000fd5b50505050683635c9adc5dea00000600660003373ffffffffffffffffffffffffffffffffffffffff1673ffffffffffffffffffffffffffffffffffffffff16815260200190815260200160002060008282540192505081905550683635c9adc5dea00000600260008282540192505081905550565b6000600660003373ffffffffffffffffffffffffffffffffffffffff1673ffffffffffffffffffffffffffffffffffffffff16815260200190815260200160002054116105b4576040517f08c379a000000000000000000000000000000000000000000000000000000000815260040180806020018281038252601d8152602001807f596f75206e65656420746f20636c61696d20736f6d6520746f6b656e7300000081525060200191505060405180910390fd5b600660003373ffffffffffffffffffffffffffffffffffffffff1673ffffffffffffffffffffffffffffffffffffffff16815260200190815260200160002054811115610669576040517f08c379a00000000000000000000000000000000000000000000000000000000081526004018080602001828103825260118152602001807f4e6f7420656e6f75676820746f6b656e7300000000000000000000000000000081525060200191505060405180910390fd5b600460009054906101000a900473ffffffffffffffffffffffffffffffffffffffff166000806101000a81548173ffffffffffffffffffffffffffffffffffffffff021916908373ffffffffffffffffffffffffffffffffffffffff1602179055506000809054906101000a900473ffffffffffffffffffffffffffffffffffffffff1673ffffffffffffffffffffffffffffffffffffffff1663a9059cbb33836040518363ffffffff1660e01b8152600401808373ffffffffffffffffffffffffffffffffffffffff1673ffffffffffffffffffffffffffffffffffffffff16815260200182815260200192505050600060405180830381600087803b15801561077357600080fd5b505af1158015610787573d6000803e3d6000fd5b5050505080600660003373ffffffffffffffffffffffffffffffffffffffff1673ffffffffffffffffffffffffffffffffffffffff168152602001908152602001600020600082825403925050819055508060026000828254039250508190555050565b60076020528060005260406000206000915090505481565b60008111610879576040517f08c379a000000000000000000000000000000000000000000000000000000000815260040180806020018281038252601f8152602001807f596f75206e65656420746f206465706f73697420736f6d6520746f6b656e730081525060200191505060405180910390fd5b600460009054906101000a900473ffffffffffffffffffffffffffffffffffffffff166000806101000a81548173ffffffffffffffffffffffffffffffffffffffff021916908373ffffffffffffffffffffffffffffffffffffffff1602179055506000809054906101000a900473ffffffffffffffffffffffffffffffffffffffff1673ffffffffffffffffffffffffffffffffffffffff16631417cef833836040518363ffffffff1660e01b8152600401808373ffffffffffffffffffffffffffffffffffffffff1673ffffffffffffffffffffffffffffffffffffffff16815260200182815260200192505050600060405180830381600087803b15801561098357600080fd5b505af1158015610997573d6000803e3d6000fd5b505050506000809054906101000a900473ffffffffffffffffffffffffffffffffffffffff1673ffffffffffffffffffffffffffffffffffffffff166323b872dd3330846040518463ffffffff1660e01b8152600401808473ffffffffffffffffffffffffffffffffffffffff1673ffffffffffffffffffffffffffffffffffffffff1681526020018373ffffffffffffffffffffffffffffffffffffffff1673ffffffffffffffffffffffffffffffffffffffff1681526020018281526020019350505050600060405180830381600087803b158015610a7757600080fd5b505af1158015610a8b573d6000803e3d6000fd5b5050505080600660003373ffffffffffffffffffffffffffffffffffffffff1673ffffffffffffffffffffffffffffffffffffffff168152602001908152602001600020600082825401925050819055508060026000828254019250508190555050565b60008511610b48576040517f08c379a00000000000000000000000000000000000000000000000000000000081526004018080602001828103825260278152602001806110ee6027913960400191505060405180910390fd5b600660003373ffffffffffffffffffffffffffffffffffffffff1673ffffffffffffffffffffffffffffffffffffffff16815260200190815260200160002054851115610be0576040517f08c379a00000000000000000000000000000000000000000000000000000000081526004018080602001828103825260278152602001806111156027913960400191505060405180910390fd5b600560009054906101000a900473ffffffffffffffffffffffffffffffffffffffff16600160006101000a81548173ffffffffffffffffffffffffffffffffffffffff021916908373ffffffffffffffffffffffffffffffffffffffff160217905550600160009054906101000a900473ffffffffffffffffffffffffffffffffffffffff1673ffffffffffffffffffffffffffffffffffffffff1663f305d71934600460009054906101000a900473ffffffffffffffffffffffffffffffffffffffff1688888888886040518863ffffffff1660e01b8152600401808773ffffffffffffffffffffffffffffffffffffffff1673ffffffffffffffffffffffffffffffffffffffff1681526020018681526020018581526020018481526020018373ffffffffffffffffffffffffffffffffffffffff1673ffffffffffffffffffffffffffffffffffffffff16815260200182815260200196505050505050506060604051808303818588803b158015610d5a57600080fd5b505af1158015610d6e573d6000803e3d6000fd5b50505050506040513d6060811015610d8557600080fd5b8101908080519060200190929190805190602001909291908051906020019092919050505050505084600660003373ffffffffffffffffffffffffffffffffffffffff1673ffffffffffffffffffffffffffffffffffffffff1681526020019081526020016000206000828254039250508190555084600760003373ffffffffffffffffffffffffffffffffffffffff1673ffffffffffffffffffffffffffffffffffffffff16815260200190815260200160002060008282540192505081905550846003600082825401925050819055505050505050565b600560009054906101000a900473ffffffffffffffffffffffffffffffffffffffff16600160006101000a81548173ffffffffffffffffffffffffffffffffffffffff021916908373ffffffffffffffffffffffffffffffffffffffff160217905550600160009054906101000a900473ffffffffffffffffffffffffffffffffffffffff1673ffffffffffffffffffffffffffffffffffffffff166302751cec600460009054906101000a900473ffffffffffffffffffffffffffffffffffffffff1687878787876040518763ffffffff1660e01b8152600401808773ffffffffffffffffffffffffffffffffffffffff1673ffffffffffffffffffffffffffffffffffffffff1681526020018681526020018581526020018481526020018373ffffffffffffffffffffffffffffffffffffffff1673ffffffffffffffffffffffffffffffffffffffff16815260200182815260200196505050505050506040805180830381600087803b158015610fd757600080fd5b505af1158015610feb573d6000803e3d6000fd5b505050506040513d604081101561100157600080fd5b810190808051906020019092919080519060200190929190505050505084600660003373ffffffffffffffffffffffffffffffffffffffff1673ffffffffffffffffffffffffffffffffffffffff1681526020019081526020016000206000828254019250508190555084600760003373ffffffffffffffffffffffffffffffffffffffff1673ffffffffffffffffffffffffffffffffffffffff16815260200190815260200160002060008282540392505081905550846003600082825403925050819055505050505050565b60025481565b6006602052806000526040600020600091509050548156fe4e65656420746f206465706f73697420736f6d6520746f6b656e7320696e2074686520706f6f6c4e6f7420656e6f75676820746f6b656e73206f6e204465706f7369746f7220436f6e7472616374a2646970667358221220af42a8af494c5fc7dfcf079876adafb3c461da189b23c6dfad15e132e0f6508064736f6c63430006060033",
  "immutableReferences": {},
  "source": "// SPDX-License-Identifier: MIt\r\npragma solidity >=0.4.22 <0.8.0;\r\nimport \"./TokenInterface.sol\";\r\nimport \"@uniswap/v2-periphery/contracts/interfaces/IUniswapV2Router02.sol\";\r\nimport \"@uniswap/v2-periphery/contracts/libraries/SafeMath.sol\";\r\n\r\ncontract DepositorContract {\r\n    using SafeMath for uint256;\r\n\r\n    TokenInterface GLDToken;\r\n    IUniswapV2Router02 UniswapContract;\r\n\r\n    uint256 public totalTokensManagedByDepositor = 0; //total tokens managed by depositor contract (tokensInContract + tokensInPool)\r\n    uint256 public totalTokensInUniswapPool = 0; //total tokens in Uniswap pool.\r\n\r\n    address private contractGldAddr;\r\n    address public addrUniswap = address(\r\n        0x7a250d5630B4cF539739dF2C5dAcb4c659F2488D\r\n    );\r\n\r\n    mapping(address => uint256) public tokensInContract; //Tokens in Depositor Contract but not in a pool\r\n    mapping(address => uint256) public tokensInPool; //Tokens managed by depositor contract but in Uniswap pool\r\n\r\n    constructor(address _contractGldAddr) public {\r\n        GLDToken = TokenInterface(_contractGldAddr);\r\n        contractGldAddr = _contractGldAddr;\r\n        GLDToken.approve(addrUniswap, 2**256 - 1); //We approve a large amount for Uniswap\r\n    }\r\n\r\n    function claimGldTokens() public {\r\n        GLDToken = TokenInterface(contractGldAddr);\r\n        GLDToken.claimTokens();\r\n        tokensInContract[msg.sender] += 1000 * 10**18;\r\n        totalTokensManagedByDepositor += 1000 * 10**18;\r\n    }\r\n\r\n    function withdrawGldTokens(uint256 amount) public {\r\n        require(\r\n            tokensInContract[msg.sender] > 0,\r\n            \"You need to claim some tokens\"\r\n        );\r\n        require(amount <= tokensInContract[msg.sender], \"Not enough tokens\");\r\n        GLDToken = TokenInterface(contractGldAddr);\r\n        GLDToken.transfer(msg.sender, amount);\r\n        tokensInContract[msg.sender] -= amount;\r\n        totalTokensManagedByDepositor -= amount;\r\n    }\r\n\r\n    function depositGldTokens(uint256 amount) public {\r\n        require(amount > 0, \"You need to deposit some tokens\");\r\n        GLDToken = TokenInterface(contractGldAddr);\r\n        GLDToken.setApproval(msg.sender, amount);\r\n        GLDToken.transferFrom(msg.sender, address(this), amount);\r\n        tokensInContract[msg.sender] += amount;\r\n        totalTokensManagedByDepositor += amount;\r\n    }\r\n\r\n    function depositToUniswapPool(\r\n        uint256 amountTokenDesired,\r\n        uint256 amountTokenMin,\r\n        uint256 amountEthMin,\r\n        address to,\r\n        uint256 deadline\r\n    ) public payable {\r\n        require(\r\n            amountTokenDesired > 0,\r\n            \"Need to deposit some tokens in the pool\"\r\n        );\r\n        require(\r\n            amountTokenDesired <= tokensInContract[msg.sender],\r\n            \"Not enough tokens on Depositor Contract\"\r\n        );\r\n        UniswapContract = IUniswapV2Router02(addrUniswap);\r\n        UniswapContract.addLiquidityETH{value: msg.value}(\r\n            contractGldAddr,\r\n            amountTokenDesired,\r\n            amountTokenMin,\r\n            amountEthMin,\r\n            to,\r\n            deadline\r\n        );\r\n        tokensInContract[msg.sender] -= amountTokenDesired;\r\n        tokensInPool[msg.sender] += amountTokenDesired;\r\n        totalTokensInUniswapPool += amountTokenDesired;\r\n    }\r\n\r\n    function withdrawFromUniswapPool(\r\n        uint256 liquidity,\r\n        uint256 amountTokenMin,\r\n        uint256 amountEthMin,\r\n        address to,\r\n        uint256 deadline\r\n    ) public {\r\n        UniswapContract = IUniswapV2Router02(addrUniswap);\r\n        // UniswapContract.approve(msg.sender, liquidity);\r\n        UniswapContract.removeLiquidityETH(\r\n            contractGldAddr,\r\n            liquidity,\r\n            amountTokenMin,\r\n            amountEthMin,\r\n            to,\r\n            deadline\r\n        );\r\n        tokensInContract[msg.sender] += liquidity;\r\n        tokensInPool[msg.sender] -= liquidity;\r\n        totalTokensInUniswapPool -= liquidity;\r\n    }\r\n}\r\n",
  "sourcePath": "D:/Victor/Ethereum/TD7a/contracts/DepositorContract.sol",
  "compiler": {
    "name": "solc",
    "version": "0.6.6+commit.6c089d02.Emscripten.clang"
  },
  "schemaVersion": "3.3.2",
  "updatedAt": "2020-12-07T18:09:11.321Z",
  "devdoc": {
    "methods": {}
  },
  "userdoc": {
    "methods": {}
  }
}