{
  "contractName": "DepositorContrat",
  "abi": [
    {
      "inputs": [
        {
          "internalType": "address",
          "name": "_contractGldAddr",
          "type": "address"
        }
      ],
      "stateMutability": "nonpayable",
      "type": "constructor"
    },
    {
      "inputs": [
        {
          "internalType": "address",
          "name": "",
          "type": "address"
        }
      ],
      "name": "claimers",
      "outputs": [
        {
          "internalType": "uint256",
          "name": "",
          "type": "uint256"
        }
      ],
      "stateMutability": "view",
      "type": "function"
    },
    {
      "inputs": [],
      "name": "totalSupply",
      "outputs": [
        {
          "internalType": "uint256",
          "name": "",
          "type": "uint256"
        }
      ],
      "stateMutability": "view",
      "type": "function"
    },
    {
      "inputs": [],
      "name": "claimGldTokens",
      "outputs": [],
      "stateMutability": "nonpayable",
      "type": "function"
    },
    {
      "inputs": [
        {
          "internalType": "uint256",
          "name": "amount",
          "type": "uint256"
        }
      ],
      "name": "withdrawGldTokens",
      "outputs": [],
      "stateMutability": "nonpayable",
      "type": "function"
    },
    {
      "inputs": [
        {
          "internalType": "uint256",
          "name": "amount",
          "type": "uint256"
        }
      ],
      "name": "depositGldTokens",
      "outputs": [],
      "stateMutability": "nonpayable",
      "type": "function"
    }
  ],
  "bytecode": "0x60806040526000805534801561001457600080fd5b506040516107a53803806107a58339818101604052602081101561003757600080fd5b810190808051906020019092919050505080600160006101000a81548173ffffffffffffffffffffffffffffffffffffffff021916908373ffffffffffffffffffffffffffffffffffffffff1602179055505061070c806100996000396000f3fe608060405234801561001057600080fd5b50600436106100575760003560e01c806318160ddd1461005c57806319ceb30c1461007a5780632cdc299a1461008457806377cf5619146100b2578063da62fba9146100e0575b600080fd5b610064610138565b6040518082815260200191505060405180910390f35b61008261013e565b005b6100b06004803603602081101561009a57600080fd5b8101908080359060200190929190505050610222565b005b6100de600480360360208110156100c857600080fd5b81019080803590602001909291905050506104d0565b005b610122600480360360208110156100f657600080fd5b81019080803573ffffffffffffffffffffffffffffffffffffffff1690602001909291905050506106be565b6040518082815260200191505060405180910390f35b60005481565b600160009054906101000a900473ffffffffffffffffffffffffffffffffffffffff1673ffffffffffffffffffffffffffffffffffffffff166348c54b9d6040518163ffffffff1660e01b8152600401600060405180830381600087803b1580156101a857600080fd5b505af11580156101bc573d6000803e3d6000fd5b505050506103e8600260003373ffffffffffffffffffffffffffffffffffffffff1673ffffffffffffffffffffffffffffffffffffffff168152602001908152602001600020600082825401925050819055506103e86000808282540192505081905550565b6000600260003373ffffffffffffffffffffffffffffffffffffffff1673ffffffffffffffffffffffffffffffffffffffff16815260200190815260200160002054116102d7576040517f08c379a000000000000000000000000000000000000000000000000000000000815260040180806020018281038252601d8152602001807f596f75206e65656420746f20636c61696d20736f6d6520746f6b656e7300000081525060200191505060405180910390fd5b600260003373ffffffffffffffffffffffffffffffffffffffff1673ffffffffffffffffffffffffffffffffffffffff1681526020019081526020016000205481111561038c576040517f08c379a00000000000000000000000000000000000000000000000000000000081526004018080602001828103825260118152602001807f4e6f7420656e6f75676820746f6b656e7300000000000000000000000000000081525060200191505060405180910390fd5b600160009054906101000a900473ffffffffffffffffffffffffffffffffffffffff1673ffffffffffffffffffffffffffffffffffffffff1663a9059cbb33836040518363ffffffff1660e01b8152600401808373ffffffffffffffffffffffffffffffffffffffff1673ffffffffffffffffffffffffffffffffffffffff16815260200182815260200192505050602060405180830381600087803b15801561043557600080fd5b505af1158015610449573d6000803e3d6000fd5b505050506040513d602081101561045f57600080fd5b81019080805190602001909291905050505080600260003373ffffffffffffffffffffffffffffffffffffffff1673ffffffffffffffffffffffffffffffffffffffff1681526020019081526020016000206000828254039250508190555080600080828254039250508190555050565b60008111610546576040517f08c379a000000000000000000000000000000000000000000000000000000000815260040180806020018281038252601f8152602001807f596f75206e65656420746f206465706f73697420736f6d6520746f6b656e730081525060200191505060405180910390fd5b600160009054906101000a900473ffffffffffffffffffffffffffffffffffffffff1673ffffffffffffffffffffffffffffffffffffffff166323b872dd3330846040518463ffffffff1660e01b8152600401808473ffffffffffffffffffffffffffffffffffffffff1673ffffffffffffffffffffffffffffffffffffffff1681526020018373ffffffffffffffffffffffffffffffffffffffff1673ffffffffffffffffffffffffffffffffffffffff1681526020018281526020019350505050602060405180830381600087803b15801561062357600080fd5b505af1158015610637573d6000803e3d6000fd5b505050506040513d602081101561064d57600080fd5b81019080805190602001909291905050505080600260003373ffffffffffffffffffffffffffffffffffffffff1673ffffffffffffffffffffffffffffffffffffffff1681526020019081526020016000206000828254019250508190555080600080828254019250508190555050565b6002602052806000526040600020600091509050548156fea2646970667358221220eecedf43471b3b741a952ec602ad24ee8aea0b4c368ea12b84958481ca3bd68264736f6c63430006060033",
  "immutableReferences": {},
  "source": "// SPDX-License-Identifier: MIt\r\npragma solidity >=0.4.22 <0.8.0;\r\nimport \"./GLDToken.sol\";\r\n\r\ncontract DepositorContrat {\r\n    uint256 public totalSupply = 0;\r\n    address private contractGldAddr;\r\n\r\n    mapping(address => uint256) public claimers;\r\n\r\n    constructor(address _contractGldAddr) public {\r\n        contractGldAddr = _contractGldAddr;\r\n    }\r\n\r\n    function claimGldTokens() public {\r\n        GLDToken(contractGldAddr).claimTokens();\r\n        claimers[msg.sender] += 1000;\r\n        totalSupply += 1000;\r\n    }\r\n\r\n    function withdrawGldTokens(uint256 amount) public {\r\n        require(claimers[msg.sender] > 0, \"You need to claim some tokens\");\r\n        require(amount <= claimers[msg.sender], \"Not enough tokens\");\r\n        GLDToken(contractGldAddr).transfer(msg.sender, amount);\r\n        claimers[msg.sender] -= amount;\r\n        totalSupply -= amount;\r\n    }\r\n\r\n    function depositGldTokens(uint256 amount) public {\r\n        require(amount > 0, \"You need to deposit some tokens\");\r\n        GLDToken(contractGldAddr).transferFrom(\r\n            msg.sender,\r\n            address(this),\r\n            amount\r\n        );\r\n        claimers[msg.sender] += amount;\r\n        totalSupply += amount;\r\n    }\r\n}\r\n",
  "sourcePath": "D:/Victor/Ethereum/TD7a/contracts/DepositorContract.sol",
  "compiler": {
    "name": "solc",
    "version": "0.6.6+commit.6c089d02.Emscripten.clang"
  },
  "schemaVersion": "3.3.2",
  "updatedAt": "2020-12-06T17:55:46.956Z",
  "devdoc": {
    "methods": {}
  },
  "userdoc": {
    "methods": {}
  }
}